{
    "contractName": "Object",
    "abi": [
        {
            "inputs": [
                {
                    "internalType": "string",
                    "name": "message",
                    "type": "string"
                }
            ],
            "stateMutability": "nonpayable",
            "type": "constructor"
        },
        {
            "inputs": [],
            "name": "getOriginalMessage",
            "outputs": [
                {
                    "internalType": "string",
                    "name": "temp",
                    "type": "string"
                }
            ],
            "stateMutability": "view",
            "type": "function"
        },
        {
            "inputs": [],
            "name": "object",
            "outputs": [
                {
                    "internalType": "string",
                    "name": "",
                    "type": "string"
                }
            ],
            "stateMutability": "view",
            "type": "function"
        }
    ],
    "bytecode": "608060405234801561001057600080fd5b506040516104c43803806104c483398101604081905261002f91610058565b600061003b82826101b0565b505061026f565b634e487b7160e01b600052604160045260246000fd5b6000602080838503121561006b57600080fd5b82516001600160401b038082111561008257600080fd5b818501915085601f83011261009657600080fd5b8151818111156100a8576100a8610042565b604051601f8201601f19908116603f011681019083821181831017156100d0576100d0610042565b8160405282815288868487010111156100e857600080fd5b600093505b8284101561010a57848401860151818501870152928501926100ed565b8284111561011b5760008684830101525b98975050505050505050565b600181811c9082168061013b57607f821691505b60208210810361015b57634e487b7160e01b600052602260045260246000fd5b50919050565b601f8211156101ab57600081815260208120601f850160051c810160208610156101885750805b601f850160051c820191505b818110156101a757828155600101610194565b5050505b505050565b81516001600160401b038111156101c9576101c9610042565b6101dd816101d78454610127565b84610161565b602080601f83116001811461021257600084156101fa5750858301515b600019600386901b1c1916600185901b1785556101a7565b600085815260208120601f198616915b8281101561024157888601518255948401946001909101908401610222565b508582101561025f5787850151600019600388901b60f8161c191681555b5050505050600190811b01905550565b6102468061027e6000396000f3fe608060405234801561001057600080fd5b50600436106100365760003560e01c80631c948b441461003b5780632812988f14610059575b600080fd5b610043610061565b6040516100509190610181565b60405180910390f35b6100436100f3565b606060008054610070906101d6565b80601f016020809104026020016040519081016040528092919081815260200182805461009c906101d6565b80156100e95780601f106100be576101008083540402835291602001916100e9565b820191906000526020600020905b8154815290600101906020018083116100cc57829003601f168201915b5050505050905090565b60008054610100906101d6565b80601f016020809104026020016040519081016040528092919081815260200182805461012c906101d6565b80156101795780601f1061014e57610100808354040283529160200191610179565b820191906000526020600020905b81548152906001019060200180831161015c57829003601f168201915b505050505081565b600060208083528351808285015260005b818110156101ae57858101830151858201604001528201610192565b818111156101c0576000604083870101525b50601f01601f1916929092016040019392505050565b600181811c908216806101ea57607f821691505b60208210810361020a57634e487b7160e01b600052602260045260246000fd5b5091905056fea264697066735822122065ae0fed9b25f1342ef7677cc62020e1b7f17ad8d3ffecd2acc1a60c0e9da2c864736f6c634300080f0033",
    "sourcePath": "c:/Users/Danielk/source/repos/FCBlockchain/contracts/Migrations.sol",
    "compiler": {
        "name": "solc",
        "version": "0.8.15+commit.e14f2714"
    },
    "functionHashes": {
        "getOriginalMessage()": "1c948b44",
        "object()": "2812988f"
    },
    "gasEstimates": {
        "creation": {
            "codeDepositCost": "116400",
            "executionCost": "infinite",
            "totalCost": "infinite"
        },
        "external": {
            "getOriginalMessage()": "infinite",
            "object()": "infinite"
        }
    }
}